:100000000C9435000C945D000C945D000C945D0024
:100010000C945D000C945D000C9463030C945D00E3
:100020000C945D000C945D000C945D000C945D00DC
:100030000C945D000C945D000C945D000C945D00CC
:100040000C9419030C945D000C94E7020C94C1020B
:100050000C945D000C945D000C945D000C945D00AC
:100060000C945D000C945D00A80411241FBECFEF1A
:10007000D8E0DEBFCDBF21E0A0E4B1E001C01D9219
:10008000AD3EB207E1F711E0A0E0B1E0E6E7FEE047
:1000900002C005900D92A034B107D9F710E0C5E376
:1000A000D0E004C02197FE010E944105C433D1076E
:1000B000C9F70E947A030C9439070C940000AF92A0
:1000C000BF92CF92DF92EF92FF920F931F93CF9345
:1000D000DF936C017B018B01040F151FEB015E01A7
:1000E000AE18BF08C017D10759F06991D601ED913C
:1000F000FC910190F081E02DC6010995892B79F7DB
:10010000C501DF91CF911F910F91FF90EF90DF908C
:10011000CF90BF90AF900895FC01538D448D252F53
:1001200030E0842F90E0821B930B541710F0CF9691
:10013000089501970895FC01918D828D981761F0C3
:10014000A28DAE0FBF2FB11D5D968C91928D9F5FDA
:100150009F73928F90E008958FEF9FEF0895FC01B9
:10016000918D828D981731F0828DE80FF11D858D6C
:1001700090E008958FEF9FEF0895FC01918D228DFF
:10018000892F90E0805C9F4F821B91098F73992784
:1001900008958CE491E00E94BD0021E0892B09F4D0
:1001A00020E0822F089580E090E0892B29F00E94C2
:1001B000C90081110C9400000895FC01A48DA80FC2
:1001C000B92FB11DA35ABF4F2C91848D90E0019699
:1001D0008F739927848FA689B7892C93A089B189B9
:1001E0008C91837080648C93938D848D981306C05A
:1001F0000288F389E02D80818F7D80830895EF92BE
:10020000FF920F931F93CF93DF93EC0181E0888FD0
:100210009B8D8C8D98131AC0E889F989808185FFA0
:1002200015C09FB7F894EE89FF896083E889F98942
:1002300080818370806480839FBF81E090E0DF9144
:10024000CF911F910F91FF90EF900895F62E0B8D97
:1002500010E00F5F1F4F0F731127E02E8C8D8E1152
:100260000CC00FB607FCFACFE889F989808185FFB9
:10027000F5CFCE010E94DD00F1CFEB8DEC0FFD2F0D
:10028000F11DE35AFF4FF0829FB7F8940B8FEA8974
:10029000FB8980818062CFCFCF93DF93EC01888D83
:1002A0008823B9F0AA89BB89E889F9898C9185FDF1
:1002B00003C0808186FD0DC00FB607FCF7CF8C917F
:1002C00085FFF2CF808185FFEDCFCE010E94DD005A
:1002D000E9CFDF91CF9108953FB7F8948091450120
:1002E00090914601A0914701B091480126B5A89B85
:1002F00005C02F3F19F00196A11DB11D3FBFBA2FB8
:10030000A92F982F8827BC01CD01620F711D811D77
:10031000911D42E0660F771F881F991F4A95D1F7FC
:1003200008954115510529F4EAE7F0E080818F77BF
:1003300080836A307105B9F0CB01880F991F880F4F
:10034000991F807267706860682B88E10FB6F89417
:10035000A895809360000FBE60936000E0E6F0E037
:10036000808180648083232BD9F483B7817F84606C
:1003700083BFF89483B7816083BF85B7806685BFEC
:100380008F7D85BF7894889583B78E7F83BF78945F
:10039000452B29F4EAE7F0E08081806880830895A6
:1003A00083B7817F846083BFF89483B7816083BF04
:1003B0007894889583B78E7F83BF7894E9CF42E0A5
:1003C00050E068E171E08CE491E00C945F00CF9321
:1003D000DF93FC0144815581608171818CE491E05F
:1003E0000E945F00EC010E94DF018C0F9D1FDF91D6
:1003F000CF9108950F931F93CF93DF93EC018881E2
:100400009981009759F02A813B812617370730F0F0
:1004100081E0DF91CF911F910F9108958B016F5F64
:100420007F4F0E946C06009759F0998388831B8345
:100430000A832C813D81232B59F7FC011082E8CFE0
:1004400080E0E7CFEF92FF920F931F93CF93DF935C
:100450006115710541F480E0DF91CF911F910F91FB
:10046000FF90EF90089541155105B1F07B01EC012B
:100470000C811D81040F151FB8010E94FA01882309
:1004800051F3288139818C819D81B701820F931F9F
:100490000E9432071D830C8381E0DECFCF93DF9370
:1004A000EC0188819981009711F00E94E30519827F
:1004B00018821D821C821B821A82DF91CF910895BF
:1004C000EF92FF920F931F93CF93DF93EC017B0189
:1004D0008A01BA010E94FA0181110BC0CE010E946B
:1004E0004E02CE01DF91CF911F910F91FF90EF90BF
:1004F00008951D830C83B701888199810E9432077A
:10050000F0CFEF92FF920F931F93CF93DF93CDB76E
:10051000DEB762970FB6F894DEBF0FBECDBF8C0179
:10052000CB01F8011182108213821282158214828B
:100530004AE09E012F5F3F4F7901B9010E94D50427
:10054000F70101900020E9F73197AF014E195F09DB
:10055000B701C8010E94600262960FB6F894DEBF30
:100560000FBECDBFDF91CF911F910F91FF90EF9004
:100570000895FC0180819181009711F00C94E305AE
:1005800008951F920F920FB60F9211242F933F934D
:100590004F935F936F937F938F939F93AF93BF938B
:1005A000EF93FF938CE491E00E94DD00FF91EF91C7
:1005B000BF91AF919F918F917F916F915F914F917B
:1005C0003F912F910F900FBE0F901F9018951F9283
:1005D0000F920FB60F9211242F938F939F93EF9347
:1005E000FF93E0915C01F0915D018081E0916201F7
:1005F000F091630182FD1BC09081809165018F5F46
:100600008F7320916601821741F0E0916501F0E05F
:10061000E45BFE4F958F80936501FF91EF919F9171
:100620008F912F910F900FBE0F901F901895808182
:10063000F4CF1F920F920FB60F9211242F933F9376
:100640008F939F93AF93BF9380914101909142010B
:10065000A0914301B09144013091400123E0230F68
:100660002D3758F50196A11DB11D209340018093AF
:10067000410190934201A0934301B09344018091C2
:10068000450190914601A0914701B0914801019622
:10069000A11DB11D8093450190934601A093470190
:1006A000B0934801BF91AF919F918F913F912F914E
:1006B0000F900FBE0F901F90189526E8230F0296FB
:1006C000A11DB11DD2CF1F920F920FB60F92112410
:1006D0008F930FB6F894A8958091600088618093FD
:1006E0006000109260000FBE8F910F900FBE0F90B0
:1006F0001F901895CF93DF93CDB7DEB72C970FB629
:10070000F894DEBF0FBECDBF789484B5826084BDFF
:1007100084B5816084BD85B5826085BD85B5816005
:1007200085BD80916E00816080936E001092810083
:10073000809181008260809381008091810081603E
:1007400080938100809180008160809380008091FF
:10075000B10084608093B1008091B000816080938B
:10076000B00080917A00846080937A0080917A0052
:10077000826080937A0080917A00816080937A0011
:1007800080917A00806880937A001092C100E09195
:100790005C01F0915D0182E08083E0915801F0916D
:1007A00059011082E0915A01F0915B0180E1808350
:1007B00010926401E0916001F091610186E0808314
:1007C000E0915E01F0915F01808180618083E09122
:1007D0005E01F0915F01808188608083E0915E011D
:1007E000F0915F01808180688083E0915E01F091EB
:1007F0005F0180818F7D80834DE050E06BE171E08F
:100800008CE491E00E945F000E94DF0100E010E0B4
:1008100060914A0170914B01CE0101960E948102C4
:1008200018861F821A8619861C861B8648E050E0AF
:1008300069E271E0CE0107960E9460024D815E81FF
:1008400069817A81CE0107960E942202811104C03B
:10085000CE0107960E944E02CE0107960E94E70144
:10086000CE0107960E94B902CE0101960E94B902FC
:100870000E946C014B015C018AE0C82ED12CE12C56
:10088000F12C0E946C01681979098A099B09683E5C
:10089000734081059105A8F321E0C21AD108E1084F
:1008A000F10888EE880E83E0981EA11CB11CC114CB
:1008B000D104E104F10429F730E020E050E040E009
:1008C00069E070E089E491E00E94910160914A0141
:1008D00070914B016F5F7F4F70934B0160934A01A2
:1008E000CE0101960E94810218861F821A861986FF
:1008F0001C861B864DE050E062E371E0CE01079656
:100900000E9460024D815E8169817A81CE010796E5
:100910000E942202811104C0CE0107960E944E025D
:10092000CE0107960E94E701CE0107960E94B90208
:10093000CE0101960E94B9020115110509F468CF94
:100940000E94C900882309F463CF0E94000060CF91
:10095000ECE4F1E01382128288EE93E0A0E0B0E0D4
:1009600084839583A683B7838AE091E09183808313
:1009700085EC90E09587848784EC90E09787868764
:1009800080EC90E0918B808B81EC90E0938B828B5C
:1009900082EC90E0958B848B86EC90E0978B868B35
:1009A000118E128E138E148E0895BB274A3031F4A7
:1009B000992322F4BDE2909581959F4F0C94E10418
:1009C000BB27FB015527AA27880F991FAA1FA41729
:1009D00010F0A41B83955051B9F7A05DAA3308F01D
:1009E000A95DA193009779F7B111B1931192CB0151
:1009F0000C94FA04DC01FC01672F71917723E1F775
:100A0000329704C07C916D9370836291AE17BF07DB
:100A1000C8F308952F923F924F925F926F927F9208
:100A20008F929F92AF92BF92CF92DF92EF92FF92FE
:100A30000F931F93CF93DF93CDB7DEB7CA1BDB0BAA
:100A40000FB6F894DEBF0FBECDBF09942A8839884F
:100A500048885F846E847D848C849B84AA84B98456
:100A6000C884DF80EE80FD800C811B81AA81B98162
:100A7000CE0FD11D0FB6F894DEBF0FBECDBFED0176
:100A80000895EE0FFF1F0590F491E02D09940F9348
:100A90001F93CF93DF938230910510F482E090E0B2
:100AA000E091EB01F091EC0130E020E0B0E0A0E05B
:100AB000309799F42115310509F44AC0281B390BE8
:100AC00024303105D8F58A819B816115710589F142
:100AD000FB0193838283FE0111C040815181028119
:100AE000138148175907E0F04817590799F41097F0
:100AF00061F012960C93129713961C933296CF01C5
:100B0000DF91CF911F910F9108950093EB01109306
:100B1000EC01F4CF2115310551F04217530738F09D
:100B2000A901DB019A01BD01DF01F801C1CFEF018D
:100B3000F9CF9093EC018093EB01CDCFFE01E20F52
:100B4000F31F819391932250310939832883D7CFA2
:100B50002091E9013091EA01232B41F42091020117
:100B6000309103013093EA012093E90120910001C3
:100B7000309101012115310541F42DB73EB7409167
:100B8000040150910501241B350BE091E901F0911E
:100B9000EA01E217F307A0F42E1B3F0B28173907D1
:100BA00078F0AC014E5F5F4F2417350748F04E0FC9
:100BB0005F1F5093EA014093E901819391939FCF86
:100BC000F0E0E0E09CCFCF93DF930097E9F0FC01E9
:100BD000329713821282A091EB01B091EC01ED01EA
:100BE00030E020E01097A1F420813181820F931F23
:100BF0002091E9013091EA012817390709F061C015
:100C0000F093EA01E093E901DF91CF910895EA01C1
:100C1000CE17DF07E8F54A815B819E01411551053A
:100C2000B1F7E901FB83EA8349915991C40FD51FBC
:100C3000EC17FD0761F4808191810296840F951F66
:100C4000E90199838883828193819B838A83F0E081
:100C5000E0E012968D919C9113970097B9F52D9134
:100C60003C911197CD010296820F931F2091E901CB
:100C70003091EA012817390739F6309751F510926B
:100C8000EC011092EB01B093EA01A093E901BCCF13
:100C9000D383C28340815181840F951FC817D90720
:100CA00061F44E5F5F4F88819981480F591F5183CE
:100CB00040838A819B81938382832115310509F0CA
:100CC000B0CFF093EC01E093EB019ECFFD01DC018E
:100CD000C0CF13821282D7CFB0E0A0E0E2E7F6E007
:100CE0000C940C058C01009751F4CB010E94470530
:100CF0008C01C801CDB7DEB7E0E10C942805FC01FA
:100D0000E60FF71F9C0122503109E217F30708F4A0
:100D10009DC0D901CD91DC911197C617D70798F0E6
:100D2000C530D10530F3CE0104978617970708F335
:100D3000C61BD70B2297C193D1936D937C93CF01A0
:100D40000E94E305D6CF5B01AC1ABD0A4C018C0EA4
:100D50009D1EA091EB01B091EC01512C412CF12C86
:100D6000E12C109731F58091E9019091EA01881505
:100D7000990509F05CC04616570608F058C08091E6
:100D8000000190910101009741F48DB79EB7409109
:100D9000040150910501841B950BE817F90708F031
:100DA00055C0F093EA01E093E901F9017183608392
:100DB000A0CF8D919C91119712966C9012971396DB
:100DC0007C901397A815B90559F56C0142E0C40E43
:100DD000D11CCA14DB0420F1AC014A195B09DA0109
:100DE0001296159780F06282738251834083D901F5
:100DF0006D937C93E114F10471F0D7011396FC9389
:100E0000EE93129776CF22968C0F9D1FF901918356
:100E10008083F301EFCFF093EC01E093EB0169CF16
:100E20004816590608F42C017D01D3019ACFCB0155
:100E30000E9447057C01009749F0AE01B8010E946D
:100E40002907C8010E94E305870153CF10E000E0A5
:100E500050CFFB01DC0102C001900D924150504087
:100E6000D8F70895FB01DC0101900D920020E1F715
:060E70000895F894FFCF85
:100E76000000ED01800000000000FF005F008C0014
:100E86004C01BD009B00AF000D0A005365747570E0
:100E9600202D20737461727400496465207370613B
:100EA60063004F6275647A696C656D2073696500CD
:00000001FF
