:100000000C9468000C9490000C9490000C94900058
:100010000C9490000C9490000C9490000C94900020
:100020000C9490000C9490000C9490000C94900010
:100030000C9490000C9490000C9490000C94900000
:100040000C9402030C9490000C94D0020C94AA021D
:100050000C9490000C9490000C9490000C949000E0
:100060000C9490000C949000005EBCE2613FDD8334
:10007000C29C7E20A3FD1F41009D23BE46DB65F888
:100080008C11AF32CA57E974000000002500280027
:100090002B0000000000240027002A0000000000C0
:1000A00023002600290004040404040404040202BA
:1000B00002020202030303030303010204081020E7
:1000C00040800102040810200102040810204C03A3
:1000D00011241FBECFEFD8E0DEBFCDBF11E0A0E0FE
:1000E000B1E0E8EEFBE002C005900D92A634B10746
:1000F000D9F722E0A6E4B1E001C01D92A131B20718
:10010000E1F710E0C8E6D0E004C02197FE010E94AC
:10011000EC05C736D107C9F70E94F9030C94F20524
:100120000C940000AF92BF92CF92DF92EF92FF92B9
:100130000F931F93CF93DF936C017B018B01040F0F
:10014000151FEB015E01AE18BF08C017D10759F0AB
:100150006991D601ED91FC910190F081E02DC601ED
:100160000995892B79F7C501DF91CF911F910F91E7
:10017000FF90EF90DF90CF90BF90AF900895FC017B
:10018000538D448D252F30E0842F90E0821B930BFC
:10019000541710F0CF96089501970895FC01918DA2
:1001A000828D981761F0A28DAE0FBF2FB11D5D96A5
:1001B0008C91928D9F5F9F73928F90E008958FEF47
:1001C0009FEF0895FC01918D828D981731F0828DFB
:1001D000E80FF11D858D90E008958FEF9FEF089552
:1001E000FC01918D228D892F90E0805C9F4F821BB6
:1001F00091098F73992708958FE491E00E94F00090
:1002000021E0892B09F420E0822F089580E090E01E
:10021000892B29F00E94FC0081110C9400000895A4
:10022000FC01A48DA80FB92FB11DA35ABF4F2C916B
:10023000848D90E001968F739927848FA689B78962
:100240002C93A089B1898C91837080648C93938D59
:10025000848D981306C00288F389E02D80818F7DFC
:1002600080830895EF92FF920F931F93CF93DF93B4
:10027000EC0181E0888F9B8D8C8D98131AC0E889E2
:10028000F989808185FF15C09FB7F894EE89FF89B1
:100290006083E889F98980818370806480839FBF4F
:1002A00081E090E0DF91CF911F910F91FF90EF904F
:1002B0000895F62E0B8D10E00F5F1F4F0F7311275F
:1002C000E02E8C8D8E110CC00FB607FCFACFE8899A
:1002D000F989808185FFF5CFCE010E941001F1CF11
:1002E000EB8DEC0FFD2FF11DE35AFF4FF0829FB70E
:1002F000F8940B8FEA89FB8980818062CFCFCF93FE
:10030000DF93EC01888D8823B9F0AA89BB89E8893D
:10031000F9898C9185FD03C0808186FD0DC00FB6E3
:1003200007FCF7CF8C9185FFF2CF808185FFEDCF61
:10033000CE010E941001E9CFDF91CF910895DC0139
:1003400080E0615090F09D919827E92FEF70F0E0E8
:10035000E859FF4F2491E92FE295EF70F0E0E8585B
:10036000FF4FE491822F8E27ECCF0895DC012C9172
:100370001196ED91FC91F8948181822B8183928179
:10038000322F30959323928387E090E00197F1F725
:1003900081818323818383E290E00197F1F790814B
:1003A0007894EFECF0E03197F1F7922381E009F4D3
:1003B00080E00895FC0190810180F281E02D292FD9
:1003C000209560FF14C0F89482818223828381810A
:1003D000892B8183A3E2B0E01197F1F78281982BFA
:1003E0009283789487ED90E00197F1F70895F8945F
:1003F0008281822382838181892B8183AFEFB0E068
:100400001197F1F78281982B928378948FE090E096
:10041000EBCFEF92FF920F931F93CF93DF93EC01FB
:10042000E62E08E010E0FF24F39461E08E2D8F218A
:1004300009F460E0CE010E94DA01FF0C01501109BD
:10044000A1F7F894E981FA819181888180958923C7
:100450008183E981FA8192818881809589238283D1
:100460007894DF91CF911F910F91FF90EF900895B5
:10047000EF92FF920F931F93CF93DF938C017B0139
:1004800065E50E940902E70188E0E80EF11C699128
:10049000C8010E940902CE15DF05C9F7DF91CF918F
:1004A0001F910F91FF90EF900895FC0190810180C2
:1004B000F281E02DF8948181292F20958223818378
:1004C00078943DE743E050E0315029F1DA0111978B
:1004D000F1F780818923C1F3F8948281822382839A
:1004E0008181892B81837894ABE7B7E01197F1F78D
:1004F000F894818182238183A3E1B1E01197F1F720
:100500008081982381E009F080E07894E3E6F6E0CA
:100510003197F1F7089580E00895CF93DF93FC01C0
:1005200001900020E9F73197AF01481B590BBC013E
:100530008FE491E00E949200EC0142E050E062E121
:1005400071E08FE491E00E9492008C0F9D1FDF917B
:10055000CF9108951F920F920FB60F9211242F93EF
:100560003F934F935F936F937F938F939F93AF933B
:10057000BF93EF93FF938FE491E00E941001FF91EE
:10058000EF91BF91AF919F918F917F916F915F910B
:100590004F913F912F910F900FBE0F901F90189584
:1005A0001F920F920FB60F9211242F938F939F9348
:1005B000EF93FF93E0915F01F09160018081E09102
:1005C0006501F091660182FD1BC0908180916801F8
:1005D0008F5F8F7320916901821741F0E09168016C
:1005E000F0E0E15BFE4F958F80936801FF91EF9102
:1005F0009F918F912F910F900FBE0F901F90189584
:100600008081F4CF1F920F920FB60F9211242F9377
:100610003F938F939F93AF93BF9380914B019091A2
:100620004C01A0914D01B0914E0130914A0123E05F
:10063000230F2D3758F50196A11DB11D20934A01B6
:1006400080934B0190934C01A0934D01B0934E01C8
:100650008091460190914701A0914801B0914901D4
:100660000196A11DB11D8093460190934701A0936F
:100670004801B0934901BF91AF919F918F913F91F4
:100680002F910F900FBE0F901F90189526E8230F03
:100690000296A11DB11DD2CFCF93DF9310925201CC
:1006A0001092510188EE93E0A0E0B0E080935301F6
:1006B00090935401A0935501B093560184E091E0CA
:1006C0009093500180934F0185EC90E090935C01F2
:1006D00080935B0184EC90E090935E0180935D01D8
:1006E00080EC90E09093600180935F0181EC90E05A
:1006F000909362018093610182EC90E09093640199
:100700008093630186EC90E090936601809365018D
:10071000109268011092690110926A0110926B01A7
:100720004CEB50E0FA01649188EA90E0FC012491DE
:100730002223C1F030E0220F331FF901EE56FF4FA4
:10074000A591B491F901E857FF4FC591D4917FB7B6
:10075000F8943C91262F209532233C933881232313
:1007600028837FBFFA01449140930302FC018491E6
:10077000E82FF0E0EE0FFF1FE456FF4F85919491B4
:10078000909305028093040210920E0210921002C0
:1007900010920F0210920D0210920C0210920B0296
:1007A00010920A0210920902109208021092070297
:1007B0001092060210920202109201021092ED01B4
:1007C00083E092E09093F6018093F5011092F3019B
:1007D0001092F4011092EC0189E08093EF0181E026
:1007E0008093F0018093F1018093F201DF91CF912A
:1007F0000895CF93DF93CDB7DEB761970FB6F89426
:10080000DEBF0FBECDBF789484B5826084BD84B551
:10081000816084BD85B5826085BD85B5816085BDFB
:1008200080916E00816080936E00109281008091B3
:10083000810082608093810080918100816080933B
:100840008100809180008160809380008091B10060
:1008500084608093B1008091B00081608093B0008B
:1008600080917A00846080937A0080917A0082601F
:1008700080937A0080917A00816080937A008091E1
:100880007A00806880937A001092C100E0915F0145
:10089000F091600182E08083E0915B01F0915C0166
:1008A0001082E0915D01F0915E0180E18083109201
:1008B0006701E0916301F091640186E08083E0913B
:1008C0006101F0916201808180618083E09161012A
:1008D000F0916201808188608083E0916101F091F4
:1008E0006201808180688083E0916101F091620102
:1008F00080818F7D808385E191E00E948D02E0916F
:10090000F501F091F601138615861486128611867C
:100910001086178216821582148213821092F301B8
:100920001092F40177247394662463946E018AE034
:10093000C80ED11C0091F5011091F601D8011D9649
:100940008C918823A1F0F80113861586148684E221
:1009500091E00E948D0200E010E001151105E9F31D
:100960000E94FC008823C9F30E940000F6CFC80152
:100970000E94550281110AC0D8011B961C921B9738
:100980001D961C921D971C961C92E1CF60EFC8012A
:100990000E940902EE24E394A12C912CFF24F394ED
:1009A000C8010E94B601B82EC8010E94B601B1E08C
:1009B000BB1271C0813009F090C0E0E4EF1518F669
:1009C000D8011B969C921B97911002C01D967C9299
:1009D000F8018381882309F4B6CFD8011396FE016C
:1009E0003A96055F1F4F7F018D918193A017B10744
:1009F000D9F767E0C7010E949F01998989139ACFAF
:100A00008091F3018F5F8093F3018A85883239F0FA
:100A100008F07AC0803119F0823209F08BCF8091D2
:100A2000F4018F5F8093F4018091F5019091F601BC
:100A30002091EC01211121C00E945502B701809143
:100A4000F5019091F6010E94380264EB8091F50166
:100A50009091F6010E9409028091F5019091F601B2
:100A60000E94B601182F8091F5019091F6010E9425
:100A70005502111102C06092EC018091F501909134
:100A8000F6012A85203109F48AC00E94550281119D
:100A900042C080E087C0EA2DF0E0B81214C0D8014F
:100AA0001B968C911B97F816B0F4AE0FBF1F1396D0
:100AB0008C918E2191F4B12CB8E0BF1518F0D801BB
:100AC0001C96FC929F2CE00FF11F83819E2D909528
:100AD000892383830AC08F11EECFF801EA0DF11D3F
:100AE00083818E298383BB24B3946B2DC8010E941C
:100AF000DA01F394EE0C19F4A394EE24E394B7E036
:100B0000BA1508F04DCF59CF8B3309F488CF823412
:100B100009F010CF84CFB7018091F5019091F601D3
:100B20000E9438026EEB8091F5019091F6010E94CF
:100B300009028E010F5F1F4F780118018090F501A7
:100B40009090F60188E0A82EB12C512C44244394B7
:100B5000C4010E94B60181115428440CF1E0AF1A7F
:100B6000B108B1F7D7015D927D01AC15BD0531F734
:100B70008091F5019091F6010E945502813009F0B3
:100B800088CFF80181918F01811116C0EE16FF0602
:100B9000C1F77FCF8F3571F08F3709F07ACF8CE0B6
:100BA00001C08AE09091EF01981708F0C3CE8093BE
:100BB000EF01C0CE8BE0F6CF68E0C1010E949F013B
:100BC0009985891366CF8D818F3359F318F78F314B
:100BD00009F05FCF89E0E6CFEE0FFF1F0590F4919B
:080BE000E02D0994F894FFCF09
:100BE8000000000032019200BF007F01F000CE003B
:100BF800E2000D0A0053746172742070726F67729C
:100C0800616D750054656D706572617475726120EF
:100C18007A61696E69636A616C697A6F77616E611E
:060C280020706F6D7900E1
:00000001FF
